{
  "_format": "hh-sol-artifact-1",
  "contractName": "IU2UGateway",
  "sourceName": "contracts/IU2UGateway.sol",
  "abi": [
    {
      "inputs": [
        {
          "internalType": "address",
          "name": "owner_",
          "type": "address"
        },
        {
          "internalType": "address payable",
          "name": "iu2uToken_",
          "type": "address"
        }
      ],
      "stateMutability": "nonpayable",
      "type": "constructor"
    },
    {
      "anonymous": false,
      "inputs": [
        {
          "indexed": true,
          "internalType": "string",
          "name": "chainName",
          "type": "string"
        },
        {
          "indexed": false,
          "internalType": "uint256",
          "name": "chainId",
          "type": "uint256"
        }
      ],
      "name": "ChainAdded",
      "type": "event"
    },
    {
      "anonymous": false,
      "inputs": [
        {
          "indexed": true,
          "internalType": "string",
          "name": "chainName",
          "type": "string"
        }
      ],
      "name": "ChainRemoved",
      "type": "event"
    },
    {
      "anonymous": false,
      "inputs": [
        {
          "indexed": true,
          "internalType": "address",
          "name": "sender",
          "type": "address"
        },
        {
          "indexed": false,
          "internalType": "string",
          "name": "destinationChain",
          "type": "string"
        },
        {
          "indexed": false,
          "internalType": "string",
          "name": "destinationContractAddress",
          "type": "string"
        },
        {
          "indexed": true,
          "internalType": "bytes32",
          "name": "payloadHash",
          "type": "bytes32"
        },
        {
          "indexed": false,
          "internalType": "bytes",
          "name": "payload",
          "type": "bytes"
        }
      ],
      "name": "ContractCall",
      "type": "event"
    },
    {
      "anonymous": false,
      "inputs": [
        {
          "indexed": true,
          "internalType": "bytes32",
          "name": "commandId",
          "type": "bytes32"
        },
        {
          "indexed": false,
          "internalType": "string",
          "name": "sourceChain",
          "type": "string"
        },
        {
          "indexed": false,
          "internalType": "string",
          "name": "sourceAddress",
          "type": "string"
        },
        {
          "indexed": true,
          "internalType": "address",
          "name": "contractAddress",
          "type": "address"
        },
        {
          "indexed": true,
          "internalType": "bytes32",
          "name": "payloadHash",
          "type": "bytes32"
        },
        {
          "indexed": false,
          "internalType": "bytes32",
          "name": "sourceTxHash",
          "type": "bytes32"
        },
        {
          "indexed": false,
          "internalType": "uint256",
          "name": "sourceEventIndex",
          "type": "uint256"
        }
      ],
      "name": "ContractCallApproved",
      "type": "event"
    },
    {
      "anonymous": false,
      "inputs": [
        {
          "indexed": true,
          "internalType": "bytes32",
          "name": "commandId",
          "type": "bytes32"
        },
        {
          "indexed": false,
          "internalType": "string",
          "name": "sourceChain",
          "type": "string"
        },
        {
          "indexed": false,
          "internalType": "string",
          "name": "sourceAddress",
          "type": "string"
        },
        {
          "indexed": true,
          "internalType": "address",
          "name": "contractAddress",
          "type": "address"
        },
        {
          "indexed": true,
          "internalType": "bytes32",
          "name": "payloadHash",
          "type": "bytes32"
        },
        {
          "indexed": false,
          "internalType": "string",
          "name": "symbol",
          "type": "string"
        },
        {
          "indexed": false,
          "internalType": "uint256",
          "name": "amount",
          "type": "uint256"
        },
        {
          "indexed": false,
          "internalType": "bytes32",
          "name": "sourceTxHash",
          "type": "bytes32"
        },
        {
          "indexed": false,
          "internalType": "uint256",
          "name": "sourceEventIndex",
          "type": "uint256"
        }
      ],
      "name": "ContractCallApprovedWithMint",
      "type": "event"
    },
    {
      "anonymous": false,
      "inputs": [
        {
          "indexed": true,
          "internalType": "address",
          "name": "sender",
          "type": "address"
        },
        {
          "indexed": false,
          "internalType": "string",
          "name": "destinationChain",
          "type": "string"
        },
        {
          "indexed": false,
          "internalType": "string",
          "name": "destinationContractAddress",
          "type": "string"
        },
        {
          "indexed": true,
          "internalType": "bytes32",
          "name": "payloadHash",
          "type": "bytes32"
        },
        {
          "indexed": false,
          "internalType": "bytes",
          "name": "payload",
          "type": "bytes"
        },
        {
          "indexed": false,
          "internalType": "string",
          "name": "symbol",
          "type": "string"
        },
        {
          "indexed": false,
          "internalType": "uint256",
          "name": "amount",
          "type": "uint256"
        }
      ],
      "name": "ContractCallWithToken",
      "type": "event"
    },
    {
      "anonymous": false,
      "inputs": [
        {
          "indexed": true,
          "internalType": "bytes32",
          "name": "commandId",
          "type": "bytes32"
        }
      ],
      "name": "Executed",
      "type": "event"
    },
    {
      "anonymous": false,
      "inputs": [
        {
          "indexed": true,
          "internalType": "address",
          "name": "previousOwner",
          "type": "address"
        },
        {
          "indexed": true,
          "internalType": "address",
          "name": "newOwner",
          "type": "address"
        }
      ],
      "name": "OwnershipTransferred",
      "type": "event"
    },
    {
      "anonymous": false,
      "inputs": [
        {
          "indexed": true,
          "internalType": "address",
          "name": "relayer",
          "type": "address"
        }
      ],
      "name": "RelayerAdded",
      "type": "event"
    },
    {
      "anonymous": false,
      "inputs": [
        {
          "indexed": true,
          "internalType": "address",
          "name": "relayer",
          "type": "address"
        }
      ],
      "name": "RelayerRemoved",
      "type": "event"
    },
    {
      "anonymous": false,
      "inputs": [
        {
          "indexed": true,
          "internalType": "address",
          "name": "sender",
          "type": "address"
        },
        {
          "indexed": false,
          "internalType": "string",
          "name": "destinationChain",
          "type": "string"
        },
        {
          "indexed": false,
          "internalType": "string",
          "name": "destinationAddress",
          "type": "string"
        },
        {
          "indexed": false,
          "internalType": "string",
          "name": "symbol",
          "type": "string"
        },
        {
          "indexed": false,
          "internalType": "uint256",
          "name": "amount",
          "type": "uint256"
        }
      ],
      "name": "TokenSent",
      "type": "event"
    },
    {
      "inputs": [],
      "name": "COMMAND_APPROVE_CONTRACT_CALL",
      "outputs": [
        {
          "internalType": "uint256",
          "name": "",
          "type": "uint256"
        }
      ],
      "stateMutability": "view",
      "type": "function"
    },
    {
      "inputs": [],
      "name": "COMMAND_APPROVE_CONTRACT_CALL_WITH_MINT",
      "outputs": [
        {
          "internalType": "uint256",
          "name": "",
          "type": "uint256"
        }
      ],
      "stateMutability": "view",
      "type": "function"
    },
    {
      "inputs": [],
      "name": "COMMAND_BURN_TOKEN",
      "outputs": [
        {
          "internalType": "uint256",
          "name": "",
          "type": "uint256"
        }
      ],
      "stateMutability": "view",
      "type": "function"
    },
    {
      "inputs": [],
      "name": "COMMAND_MINT_TOKEN",
      "outputs": [
        {
          "internalType": "uint256",
          "name": "",
          "type": "uint256"
        }
      ],
      "stateMutability": "view",
      "type": "function"
    },
    {
      "inputs": [
        {
          "internalType": "bytes32",
          "name": "commandId",
          "type": "bytes32"
        },
        {
          "internalType": "string",
          "name": "sourceChain",
          "type": "string"
        },
        {
          "internalType": "string",
          "name": "sourceAddress",
          "type": "string"
        },
        {
          "internalType": "address",
          "name": "contractAddress",
          "type": "address"
        },
        {
          "internalType": "bytes",
          "name": "payload",
          "type": "bytes"
        }
      ],
      "name": "_safeExecuteCall",
      "outputs": [],
      "stateMutability": "nonpayable",
      "type": "function"
    },
    {
      "inputs": [
        {
          "internalType": "bytes32",
          "name": "commandId",
          "type": "bytes32"
        },
        {
          "internalType": "string",
          "name": "sourceChain",
          "type": "string"
        },
        {
          "internalType": "string",
          "name": "sourceAddress",
          "type": "string"
        },
        {
          "internalType": "address",
          "name": "contractAddress",
          "type": "address"
        },
        {
          "internalType": "bytes",
          "name": "payload",
          "type": "bytes"
        },
        {
          "internalType": "string",
          "name": "symbol",
          "type": "string"
        },
        {
          "internalType": "uint256",
          "name": "amount",
          "type": "uint256"
        }
      ],
      "name": "_safeExecuteCallWithToken",
      "outputs": [],
      "stateMutability": "nonpayable",
      "type": "function"
    },
    {
      "inputs": [
        {
          "internalType": "string",
          "name": "chainName",
          "type": "string"
        },
        {
          "internalType": "uint256",
          "name": "chainId",
          "type": "uint256"
        }
      ],
      "name": "addChain",
      "outputs": [],
      "stateMutability": "nonpayable",
      "type": "function"
    },
    {
      "inputs": [
        {
          "internalType": "address",
          "name": "relayer",
          "type": "address"
        }
      ],
      "name": "addWhitelistedRelayer",
      "outputs": [],
      "stateMutability": "nonpayable",
      "type": "function"
    },
    {
      "inputs": [
        {
          "internalType": "bytes32",
          "name": "",
          "type": "bytes32"
        }
      ],
      "name": "approvedPayloads",
      "outputs": [
        {
          "internalType": "bytes",
          "name": "",
          "type": "bytes"
        }
      ],
      "stateMutability": "view",
      "type": "function"
    },
    {
      "inputs": [
        {
          "internalType": "string",
          "name": "destinationChain",
          "type": "string"
        },
        {
          "internalType": "string",
          "name": "destinationContractAddress",
          "type": "string"
        },
        {
          "internalType": "bytes",
          "name": "payload",
          "type": "bytes"
        }
      ],
      "name": "callContract",
      "outputs": [],
      "stateMutability": "nonpayable",
      "type": "function"
    },
    {
      "inputs": [
        {
          "internalType": "string",
          "name": "destinationChain",
          "type": "string"
        },
        {
          "internalType": "string",
          "name": "destinationContractAddress",
          "type": "string"
        },
        {
          "internalType": "bytes",
          "name": "payload",
          "type": "bytes"
        },
        {
          "internalType": "string",
          "name": "symbol",
          "type": "string"
        },
        {
          "internalType": "uint256",
          "name": "amount",
          "type": "uint256"
        }
      ],
      "name": "callContractWithToken",
      "outputs": [],
      "stateMutability": "nonpayable",
      "type": "function"
    },
    {
      "inputs": [
        {
          "internalType": "string",
          "name": "",
          "type": "string"
        }
      ],
      "name": "chainIds",
      "outputs": [
        {
          "internalType": "uint256",
          "name": "",
          "type": "uint256"
        }
      ],
      "stateMutability": "view",
      "type": "function"
    },
    {
      "inputs": [
        {
          "internalType": "uint256",
          "name": "",
          "type": "uint256"
        }
      ],
      "name": "chainNames",
      "outputs": [
        {
          "internalType": "string",
          "name": "",
          "type": "string"
        }
      ],
      "stateMutability": "view",
      "type": "function"
    },
    {
      "inputs": [
        {
          "internalType": "bytes32",
          "name": "",
          "type": "bytes32"
        }
      ],
      "name": "commandExecuted",
      "outputs": [
        {
          "internalType": "bool",
          "name": "",
          "type": "bool"
        }
      ],
      "stateMutability": "view",
      "type": "function"
    },
    {
      "inputs": [
        {
          "internalType": "bytes32",
          "name": "commandId",
          "type": "bytes32"
        },
        {
          "components": [
            {
              "internalType": "uint256",
              "name": "commandType",
              "type": "uint256"
            },
            {
              "internalType": "bytes",
              "name": "data",
              "type": "bytes"
            }
          ],
          "internalType": "struct IU2UGateway.Command[]",
          "name": "commands",
          "type": "tuple[]"
        },
        {
          "internalType": "bytes",
          "name": "signature",
          "type": "bytes"
        }
      ],
      "name": "execute",
      "outputs": [],
      "stateMutability": "nonpayable",
      "type": "function"
    },
    {
      "inputs": [],
      "name": "getAllRelayers",
      "outputs": [
        {
          "internalType": "address[]",
          "name": "",
          "type": "address[]"
        }
      ],
      "stateMutability": "view",
      "type": "function"
    },
    {
      "inputs": [
        {
          "internalType": "bytes32",
          "name": "commandId",
          "type": "bytes32"
        }
      ],
      "name": "getApprovedPayload",
      "outputs": [
        {
          "internalType": "bytes",
          "name": "",
          "type": "bytes"
        }
      ],
      "stateMutability": "view",
      "type": "function"
    },
    {
      "inputs": [
        {
          "internalType": "string",
          "name": "chainName",
          "type": "string"
        }
      ],
      "name": "getChainId",
      "outputs": [
        {
          "internalType": "uint256",
          "name": "",
          "type": "uint256"
        }
      ],
      "stateMutability": "view",
      "type": "function"
    },
    {
      "inputs": [
        {
          "internalType": "uint256",
          "name": "chainId",
          "type": "uint256"
        }
      ],
      "name": "getChainName",
      "outputs": [
        {
          "internalType": "string",
          "name": "",
          "type": "string"
        }
      ],
      "stateMutability": "view",
      "type": "function"
    },
    {
      "inputs": [],
      "name": "getRelayerCount",
      "outputs": [
        {
          "internalType": "uint256",
          "name": "",
          "type": "uint256"
        }
      ],
      "stateMutability": "view",
      "type": "function"
    },
    {
      "inputs": [
        {
          "internalType": "bytes32",
          "name": "commandId",
          "type": "bytes32"
        }
      ],
      "name": "isCommandExecuted",
      "outputs": [
        {
          "internalType": "bool",
          "name": "",
          "type": "bool"
        }
      ],
      "stateMutability": "view",
      "type": "function"
    },
    {
      "inputs": [
        {
          "internalType": "bytes32",
          "name": "commandId",
          "type": "bytes32"
        },
        {
          "internalType": "string",
          "name": "",
          "type": "string"
        },
        {
          "internalType": "string",
          "name": "",
          "type": "string"
        },
        {
          "internalType": "address",
          "name": "",
          "type": "address"
        },
        {
          "internalType": "bytes32",
          "name": "",
          "type": "bytes32"
        },
        {
          "internalType": "string",
          "name": "",
          "type": "string"
        },
        {
          "internalType": "uint256",
          "name": "",
          "type": "uint256"
        }
      ],
      "name": "isContractCallAndMintApproved",
      "outputs": [
        {
          "internalType": "bool",
          "name": "",
          "type": "bool"
        }
      ],
      "stateMutability": "view",
      "type": "function"
    },
    {
      "inputs": [
        {
          "internalType": "bytes32",
          "name": "commandId",
          "type": "bytes32"
        },
        {
          "internalType": "string",
          "name": "",
          "type": "string"
        },
        {
          "internalType": "string",
          "name": "",
          "type": "string"
        },
        {
          "internalType": "address",
          "name": "",
          "type": "address"
        },
        {
          "internalType": "bytes32",
          "name": "",
          "type": "bytes32"
        }
      ],
      "name": "isContractCallApproved",
      "outputs": [
        {
          "internalType": "bool",
          "name": "",
          "type": "bool"
        }
      ],
      "stateMutability": "view",
      "type": "function"
    },
    {
      "inputs": [
        {
          "internalType": "address",
          "name": "relayer",
          "type": "address"
        }
      ],
      "name": "isWhitelistedRelayer",
      "outputs": [
        {
          "internalType": "bool",
          "name": "",
          "type": "bool"
        }
      ],
      "stateMutability": "view",
      "type": "function"
    },
    {
      "inputs": [],
      "name": "iu2uToken",
      "outputs": [
        {
          "internalType": "contract IU2U",
          "name": "",
          "type": "address"
        }
      ],
      "stateMutability": "view",
      "type": "function"
    },
    {
      "inputs": [],
      "name": "owner",
      "outputs": [
        {
          "internalType": "address",
          "name": "",
          "type": "address"
        }
      ],
      "stateMutability": "view",
      "type": "function"
    },
    {
      "inputs": [
        {
          "internalType": "bytes32",
          "name": "_hash",
          "type": "bytes32"
        },
        {
          "internalType": "bytes",
          "name": "_signature",
          "type": "bytes"
        }
      ],
      "name": "recoverSigner",
      "outputs": [
        {
          "internalType": "address",
          "name": "",
          "type": "address"
        }
      ],
      "stateMutability": "pure",
      "type": "function"
    },
    {
      "inputs": [
        {
          "internalType": "string",
          "name": "chainName",
          "type": "string"
        }
      ],
      "name": "removeChain",
      "outputs": [],
      "stateMutability": "nonpayable",
      "type": "function"
    },
    {
      "inputs": [
        {
          "internalType": "address",
          "name": "relayer",
          "type": "address"
        }
      ],
      "name": "removeWhitelistedRelayer",
      "outputs": [],
      "stateMutability": "nonpayable",
      "type": "function"
    },
    {
      "inputs": [],
      "name": "renounceOwnership",
      "outputs": [],
      "stateMutability": "nonpayable",
      "type": "function"
    },
    {
      "inputs": [
        {
          "internalType": "string",
          "name": "destinationChain",
          "type": "string"
        },
        {
          "internalType": "string",
          "name": "destinationAddress",
          "type": "string"
        },
        {
          "internalType": "string",
          "name": "symbol",
          "type": "string"
        }
      ],
      "name": "sendToken",
      "outputs": [],
      "stateMutability": "payable",
      "type": "function"
    },
    {
      "inputs": [
        {
          "internalType": "string",
          "name": "destinationChain",
          "type": "string"
        },
        {
          "internalType": "string",
          "name": "destinationAddress",
          "type": "string"
        },
        {
          "internalType": "string",
          "name": "symbol",
          "type": "string"
        },
        {
          "internalType": "uint256",
          "name": "amount",
          "type": "uint256"
        }
      ],
      "name": "sendToken",
      "outputs": [],
      "stateMutability": "nonpayable",
      "type": "function"
    },
    {
      "inputs": [
        {
          "internalType": "address",
          "name": "newOwner",
          "type": "address"
        }
      ],
      "name": "transferOwnership",
      "outputs": [],
      "stateMutability": "nonpayable",
      "type": "function"
    },
    {
      "inputs": [
        {
          "internalType": "bytes32",
          "name": "commandId",
          "type": "bytes32"
        },
        {
          "internalType": "string",
          "name": "sourceChain",
          "type": "string"
        },
        {
          "internalType": "string",
          "name": "sourceAddress",
          "type": "string"
        },
        {
          "internalType": "bytes32",
          "name": "payloadHash",
          "type": "bytes32"
        }
      ],
      "name": "validateContractCall",
      "outputs": [
        {
          "internalType": "bool",
          "name": "",
          "type": "bool"
        }
      ],
      "stateMutability": "view",
      "type": "function"
    },
    {
      "inputs": [
        {
          "internalType": "bytes32",
          "name": "commandId",
          "type": "bytes32"
        },
        {
          "internalType": "string",
          "name": "sourceChain",
          "type": "string"
        },
        {
          "internalType": "string",
          "name": "sourceAddress",
          "type": "string"
        },
        {
          "internalType": "bytes32",
          "name": "payloadHash",
          "type": "bytes32"
        },
        {
          "internalType": "string",
          "name": "symbol",
          "type": "string"
        },
        {
          "internalType": "uint256",
          "name": "amount",
          "type": "uint256"
        }
      ],
      "name": "validateContractCallAndMint",
      "outputs": [
        {
          "internalType": "bool",
          "name": "",
          "type": "bool"
        }
      ],
      "stateMutability": "view",
      "type": "function"
    },
    {
      "inputs": [
        {
          "internalType": "address",
          "name": "",
          "type": "address"
        }
      ],
      "name": "whitelisted",
      "outputs": [
        {
          "internalType": "bool",
          "name": "",
          "type": "bool"
        }
      ],
      "stateMutability": "view",
      "type": "function"
    }
  ],
  "bytecode": "0x60a034620002db576200309590601f38839003908101601f19168201906001600160401b03821183831017620002e05780839160409586948552833981010312620002db5780516001600160a01b038082168203620002db57602080930151908116809103620002db57601091849162000079336200036f565b6200008b6109b492836001556200036f565b6080528151937f7532752d6e6562756c61732d746573746e6574000000000000000000000000009081865282603360069788601382015220556000928352600791828252602685852091620000ec620000e58454620002f6565b8462000333565b01905583516001602867657468657265756d60c01b92838152896008820152205560018452828252858585209162000129620000e58454620002f6565b0190558351603860236262736360e81b92838152896003820152205560388452828252868585209162000161620000e58454620002f6565b019055835160896027663837b63cb3b7b760c91b928381528986820152205560898452828252600e858520916200019d620000e58454620002f6565b01905583516024636261736560e01b9182815288600482015261210591829120558452828252600885852091620001d9620000e58454620002f6565b0190558351602867617262697472756d60c01b9182815288600882015261a4b191829120558452828252858585209162000218620000e58454620002f6565b01905583516029686176616c616e63686560b81b9182815288600982015261a86a9182912055845282825260128585209162000259620000e58454620002f6565b019055600a60288551676f7074696d69736d60c01b9889825260088201522055600a835252209162000290620000e58454620002f6565b01905551612cde9081620003b782396080518181816106b501528181610a58015281816111d7015281816114ba01528181611519015281816115e4015281816116430152611cf70152f35b600080fd5b634e487b7160e01b600052604160045260246000fd5b90600182811c9216801562000328575b60208310146200031257565b634e487b7160e01b600052602260045260246000fd5b91607f169162000306565b601f821162000340575050565b600090600052601f6020600020920160051c8201915b8281106200036357505050565b81815560010162000356565b600080546001600160a01b039283166001600160a01b03198216811783559216907f8be0079c531659141344cd1fd0a4f28419497f9722a3daafe3b4186f6b6457e09080a356fe60a080604052600436101561001357600080fd5b600090813560e01c90816301ffab36146122c457508063082711b2146122a85780630cdc85d0146121715780631876eed91461210b5780631c92115f1461201a5780631c98849b14610467578063224c421514611ec657806323b817bb14611dd757806326ef699d14611c4c578063307d624e14611c1d5780633374c6001461040a5780633bd51fb114611b1d578063487c174314611b015780634cbf41b0146119835780635f6970c3146119255780636e00f5d814611909578063715018a6146118af5780637223c6ba146105a457806377e8ac6f14610bfe5780638da5cb5b14610bd757806397aba7f914610b5157806399273b1a14610a875780639bb05917146104d4578063a34b609e14610a42578063b143baaa146107c9578063b5417084146105cf578063bbce148c146105a4578063bc00c21614610517578063bc527b41146104d4578063d26ff210146104a6578063d936547e14610467578063dccd7b461461040a578063e51ea0b5146103ec578063e7001c60146102ff578063f2fde38b146102345763f6a5f9f5146101ad57600080fd5b346102315760a0366003190112610231576001600160401b0360243581811161022d576101de9036906004016123a6565b5050604435908111610229576101f89036906004016123a6565b505061020261237a565b50602061021f600435600052600560205260ff6040600020541690565b6040519015158152f35b5080fd5b8280fd5b80fd5b50346102315760203660031901126102315761024e612390565b6102566127f8565b6001600160a01b039081169081156102ab57600054826bffffffffffffffffffffffff60a01b821617600055167f8be0079c531659141344cd1fd0a4f28419497f9722a3daafe3b4186f6b6457e0600080a380f35b60405162461bcd60e51b815260206004820152602660248201527f4f776e61626c653a206e6577206f776e657220697320746865207a65726f206160448201526564647265737360d01b6064820152608490fd5b50346102315780600319360112610231576002805461031d816124fa565b9261032b60405194856122f2565b818452610337826124fa565b6020938585019391601f1901368537825b82811061039b57505050604051938493602085019160208652518092526040850193925b82811061037b57505050500390f35b83516001600160a01b03168552869550938101939281019260010161036c565b60008290527f405787fa12a823e0f2b7631cc41b3ba8828b3321ca811111fa75cd3aa3bb5ace8101549396949593600191906001600160a01b03166103e08288612789565b52019592949395610348565b50346102315780600319360112610231576020600254604051908152f35b503461023157602036600319011261023157600435906001600160401b03821161023157602061045481610441366004870161232e565b81604051938285809451938492016124b2565b8101600681520301902054604051908152f35b50346102315760203660031901126102315760209060ff906040906001600160a01b03610492612390565b168152600484522054166040519015158152f35b503461023157602036600319011261023157602061021f600435600052600560205260ff6040600020541690565b5034610231576020366003190112610231576104ff604061051392600435815260086020522061240d565b6040519182916020835260208301906124d5565b0390f35b50346102315760e0366003190112610231576001600160401b0360243581811161022d576105499036906004016123a6565b505060443581811161022d576105639036906004016123a6565b505061056d61237a565b5060a435908111610229576105869036906004016123a6565b5050602061021f600435600052600560205260ff6040600020541690565b5034610231576020366003190112610231576104ff604061051392600435815260076020522061240d565b50346102315760a0366003190112610231576001600160401b0360043581811161022d5761060190369060040161232e565b906024358181116107c55761061a90369060040161232e565b916044358281116107c15761063390369060040161232e565b916064359081116107c15761064c90369060040161232e565b906084359260405161067e8184516020938161066c869383858b016124b2565b810160068152030190205415156125c0565b61068a8651151561260c565b61069585151561268f565b6106b28451828601206106a66126da565b8381519101201461270a565b867f00000000000000000000000000000000000000000000000000000000000000006001600160a01b0316803b1561022957604051632770a7eb60e21b8152336004820152602481018890529082908290604490829084905af180156107b65761079a575b50509261077d8261076f7f7e50569d26be643bda7757722291ec66b1be66d8283474ae3fab5a98f878a7a29661078b955181840120996107626040519860a08a5260a08a01906124d5565b91888303908901526124d5565b9085820360408701526124d5565b9083820360608501526124d5565b9260808201528033930390a380f35b6107a6909592956122df565b6107b257928638610717565b8680fd5b6040513d84823e3d90fd5b8480fd5b8380fd5b5034610231576040366003190112610231576001600160401b0360043581811161022d576107fb90369060040161232e565b90602435916108086127f8565b805115610a085782156109d05760405191815160209384818186019361082f8183876124b2565b8101600681520301902054610994576108558486926040518093819288519283916124b2565b81016006815203019020558385526007835260408520908251908111610980576108898161088384546123d3565b846127b3565b83601f82116001146108fa57916108dd827f8398b0e4d6d15e6038c42e15bf0f0f5466dc36dfd49979c0599bc2eb0fb583029695936108e4958a916108ef575b508160011b916000199060031b1c19161790565b905561266f565b92604051908152a280f35b9050840151386108c9565b82875284872090601f198316885b8181106109695750926108e49492600192827f8398b0e4d6d15e6038c42e15bf0f0f5466dc36dfd49979c0599bc2eb0fb5830299989610610950575b5050811b01905561266f565b85015160001960f88460031b161c191690553880610944565b91928760018192868a015181550194019201610908565b634e487b7160e01b86526041600452602486fd5b60405162461bcd60e51b8152600481018590526014602482015273436861696e20616c72656164792065786973747360601b6044820152606490fd5b60405162461bcd60e51b815260206004820152601060248201526f125b9d985b1a590818da185a5b88125160821b6044820152606490fd5b60405162461bcd60e51b8152602060048201526012602482015271496e76616c696420636861696e206e616d6560701b6044820152606490fd5b50346102315780600319360112610231576040517f00000000000000000000000000000000000000000000000000000000000000006001600160a01b03168152602090f35b503461023157602036600319011261023157610aa1612390565b610aa96127f8565b6001600160a01b03168082526004602052604082205460ff1615610b0c57808252600460205260408220805460ff19169055610ae481612b2f565b507f10e1f7ce9fd7d1b90a66d13a2ab3cb8dd7f29f3f8d520b143b063ccfbab6906b8280a280f35b60405162461bcd60e51b815260206004820152601760248201527f52656c61796572206e6f742077686974656c69737465640000000000000000006044820152606490fd5b5034610231576040366003190112610231576024356001600160401b03811161022957610bbd602092603c610b8d610bc594369060040161232e565b917f19457468657265756d205369676e6564204d6573736167653a0a3332000000008152600435601c52206129dd565b919091612a15565b6040516001600160a01b039091168152f35b5034610231578060031936011261023157546040516001600160a01b039091168152602090f35b5034610231576060366003190112610231576024356001600160401b0381116102295736602382011215610229578060040135610c3a816124fa565b91610c4860405193846122f2565b81835260208301906024829360051b820101903682116110565760248101925b82841061181a57505050506044356001600160401b0381116107c557610c9290369060040161232e565b90338452600460205260ff604085205416156117d5576004358452600560205260ff604085205416611790576004358452600560205260408420600160ff19825416179055604051906060820160043560208401526040808401528451809152608083019060808160051b850101929187905b828210611754578888610d5f610bbd8a8a610d29818c03601f1981018352826122f2565b602081519101207f19457468657265756d205369676e6564204d6573736167653a0a3332000000008652601c52603c85206129dd565b6001600160a01b031682526004602052604082205460ff161561171e5781905b80518310156116f357610d928382612789565b5180518061105a575060200151928351840160e0858203126107c55760208501516001600160401b0381116107c157610dd39060208084019188010161291d565b9060408601516001600160401b03811161105657610df99060208084019189010161291d565b91610e0660608801612909565b90608088015160a08901519860c08101519460e0820151906001600160401b03821161105257610e3d92602091820192010161291d565b93610e4f82865160208801201461299a565b60043589526008602052604089209985519a6001600160401b038c1161103e578b610e838c9d610883849e9c9d9e546123d3565b6020601f8211600114610fda579080610eb0928c91610fcf57508160011b916000199060031b1c19161790565b90555b6040519160808352610ed9610ecb60808501876124d5565b8481036020860152896124d5565b91604084015260608301527f44e4f8f6bd682c5a3aeba93601ab07cb4d1f21b2aab1ae4880d9577919309aa460018060a01b0386169280600435930390a46001600160a01b0382163b610f38575b50505050506001905b019190610d7f565b303b156107c157610fa8610f75928694610f87604051978896879662cdc85d60e41b8852600435600489015260a0602489015260a48801906124d5565b868103600319016044880152906124d5565b6001600160a01b0390921660648501528382036003190160848501526124d5565b038183305af1610fbb575b808080610f27565b610fc4906122df565b61022d578284610fb3565b90508901518f6108c9565b90828b5260208b208b925b8a601f198416851061102757506001935082601f1981161061100e575b5050811b019055610eb3565b8a015160001960f88460031b161c191690558e80611002565b810151825560209384019360019092019101610fe5565b634e487b7160e01b8b52604160045260248bfd5b8a80fd5b8580fd5b60018103611462575060200151928351840193610120818603126107c55760208101516001600160401b0381116107c15761109d9060208088019184010161291d565b9460408201516001600160401b038111611056576110c39060208084019185010161291d565b916110d060608201612909565b9660808201519260a0830151986001600160401b038a1161145e576111056001600160401b039a60208085019187010161291d565b9460c08501519260e086015195610100810151916101208201519d8e1161145a579060206001600160401b039e81611140940192010161291d565b95611160885160208a01206111536126da565b602081519101201461270a565b61117183885160208a01201461299a565b6004358c52600860205260408c2087519d8e1161144657601f8e8e6111a08261119a86546123d3565b866127b3565b6080526020608052116001146113d4576111d28e8e9f8f9d9e9f906113ba578160011b916000199060031b1c19161790565b90555b7f00000000000000000000000000000000000000000000000000000000000000006001600160a01b0316803b15611052576040516340c10f1960e01b81526001600160a01b038616600482015260248101879052908b908290604490829084905af19081156113af578b91611397575b50506040519160c0835261127e61127061126260c086018a6124d5565b85810360208701528c6124d5565b84810360408601528a6124d5565b91866060850152608084015260a08301527f9991faa1f435675159ffae64b66d7ecfdb55c29755869a18db8497b4392347e060018060a01b0385169280600435930390a46001600160a01b0381163b6112e1575b50505050505050600190610f30565b303b156107b257869461135661136892611323966113356040519a8b998a996304cbf41b60e41b8b5260043560048c015260e060248c015260e48b01906124d5565b8981036003190160448b0152906124d5565b6001600160a01b0390921660648801528682036003190160848801526124d5565b8481036003190160a4860152906124d5565b9060c4830152038183305af1611383575b80808080806112d2565b61138c906122df565b61022d578284611379565b6113a0906122df565b6113ab57898e611245565b8980fd5b6040513d8d823e3d90fd5b506080518a01518160011b916000199060031b1c19161790565b808d5260208d208d8f5b601f1916811061142557508e8e9f919d9e9c9d600192601f1981161061140a575b50811b0190556111d5565b6080518b015160001960f88460031b161c19169055386113ff565b908f9060016020916080518d015181550192816080510160805201906113de565b634e487b7160e01b8d52604160045260248dfd5b8c80fd5b8880fd5b92939192600481036115a55750611489602061149c92015160208082518301019101612962565b60208194929394519101206111536126da565b6114a781151561268f565b6001600160a01b0382161561156c5784917f00000000000000000000000000000000000000000000000000000000000000006001600160a01b03163b1561022d576040516340c10f1960e01b81526001600160a01b0390911660048201526024810191909152818180604481010381837f00000000000000000000000000000000000000000000000000000000000000006001600160a01b03165af180156107b657611558575b5050600190610f30565b611561906122df565b61022d57828461154e565b60405162461bcd60e51b8152602060048201526011602482015270125b9d985b1a59081c9958da5c1a595b9d607a1b6044820152606490fd5b6002036116b75761148960206115c692015160208082518301019101612962565b6115d181151561268f565b6001600160a01b038216156116815784917f00000000000000000000000000000000000000000000000000000000000000006001600160a01b03163b1561022d57604051632770a7eb60e21b81526001600160a01b0390911660048201526024810191909152818180604481010381837f00000000000000000000000000000000000000000000000000000000000000006001600160a01b03165af180156107b657611558575050600190610f30565b60405162461bcd60e51b815260206004820152600e60248201526d24b73b30b634b21039b2b73232b960911b6044820152606490fd5b60405162461bcd60e51b8152602060048201526014602482015273556e6b6e6f776e20636f6d6d616e64207479706560601b6044820152606490fd5b506004357fa74c8847d513feba22a0f0cb38d53081abf97562cdb293926ba243689e7c41ca8280a280f35b60405162461bcd60e51b815260206004820152600e60248201526d24b73b30b634b21039b4b3b732b960911b6044820152606490fd5b90919293602080611782600193607f198a82030186526040838a5180518452015191818582015201906124d5565b960192019201909291610d05565b60405162461bcd60e51b815260206004820152601860248201527f436f6d6d616e6420616c726561647920657865637574656400000000000000006044820152606490fd5b60405162461bcd60e51b815260206004820152601f60248201527f43616c6c6572206e6f742077686974656c69737465642072656c6179657273006044820152606490fd5b83356001600160401b0381116118ab578201604060231982360301126118ab5760405191604083018381106001600160401b0382111761189557604052602482013583526044820135926001600160401b0384116113ab5761188660209493602486953692010161232e565b83820152815201930192610c68565b634e487b7160e01b600052604160045260246000fd5b8780fd5b50346102315780600319360112610231576118c86127f8565b600080546001600160a01b0319811682556001600160a01b03167f8be0079c531659141344cd1fd0a4f28419497f9722a3daafe3b4186f6b6457e08280a380f35b5034610231578060031936011261023157602060405160018152f35b5034610231576080366003190112610231576001600160401b0360243581811161022d576119579036906004016123a6565b5050604435908111610229576119719036906004016123a6565b5050602061021f606435600435612579565b50346102315760e036600319011261023157806001600160401b03602435818111611afd576119b690369060040161232e565b90604435818111611af8576119cf90369060040161232e565b916119d861237a565b91608435818111611056576119f190369060040161232e565b9060a43590811161105657611a9e869592611a888794611a18611a7995369060040161232e565b611a23303314612511565b604051958694611a69611a56602088019b62d4c59760e51b8d5260043560248a015260c060448a015260e48901906124d5565b60231995868983030160648a01526124d5565b90848783030160848801526124d5565b918483030160a48501526124d5565b60c43560c483015203601f1981018352826122f2565b51925af1611aaa612549565b5015611ab35780f35b60405162461bcd60e51b815260206004820152601f60248201527f436f6e74726163742063616c6c207769746820746f6b656e206661696c6564006044820152606490fd5b505050fd5b5050fd5b5034610231578060031936011261023157602060405160048152f35b503461023157602036600319011261023157611b37612390565b611b3f6127f8565b6001600160a01b03168015611be157808252600460205260ff604083205416611baa57808252600460205260408220805460ff19166001179055611b8281612887565b507f03580ee9f53a62b7cb409a2cb56f9be87747dd15017afc5cef6eef321e4fb2c58280a280f35b60405162461bcd60e51b815260206004820152600f60248201526e20b63932b0b23c903932b630bcb2b960891b6044820152606490fd5b60405162461bcd60e51b81526020600482015260146024820152731859191c995cdcc81a5cc81b9bdd081d985b1a5960621b6044820152606490fd5b50346102315760203660031901126102315760ff60406020926004358152600584522054166040519015158152f35b5034610231576080366003190112610231576001600160401b039060043582811161022957611c7f90369060040161232e565b60243583811161022d57611c9790369060040161232e565b9260443590811161022d57611cb090369060040161232e565b60643593611ccc604051602081865161066c8183858b016124b2565b611cd88151151561260c565b611ce385151561268f565b611cf5825160208401206111536126da565b7f00000000000000000000000000000000000000000000000000000000000000006001600160a01b0316803b156107c157604051632770a7eb60e21b8152336004820152602481018790529085908290604490829084905af18015611dcc57611d95575b50611d8f7f651d93f66c4329630e8d0f62488eff599e3be484da587335e8dc0fcf4606272693949560405193849333978561274a565b0390a280f35b7f651d93f66c4329630e8d0f62488eff599e3be484da587335e8dc0fcf460627269394611dc4611d8f926122df565b949350611d59565b6040513d87823e3d90fd5b506060366003190112610231576001600160401b0360043581811161022d57611e0490369060040161232e565b6024358281116107c557611e1c90369060040161232e565b916044359081116107c557611e3590369060040161232e565b906001544603611e91577f651d93f66c4329630e8d0f62488eff599e3be484da587335e8dc0fcf4606272691611e6c34151561268f565b611e7e815160208301206111536126da565b611d8f604051928392339634928561274a565b60405162461bcd60e51b815260206004820152600d60248201526c2737ba102a992a9021b430b4b760991b6044820152606490fd5b503461023157602080600319360112610229576004356001600160401b03811161022d57611ef890369060040161232e565b90611f016127f8565b604051825190828181860193611f188183876124b2565b8101600681520301902054908115611fde5791849182611f4883611f789796604051809381928a519283916124b2565b81016006815203019020558252600781526040822090611f6882546123d3565b9081611f9f575b5050505061266f565b7f9872686700ce3c111f0231d65c591f43d9592b5ef96649b3f7ee98c4133dbc628280a280f35b8390601f8311600114611fba57505050555b82388080611f6f565b8382528120929091611fd790601f0160051c840160018501612658565b5555611fb1565b60405162461bcd60e51b815260048101849052601460248201527310da185a5b88191bd95cc81b9bdd08195e1a5cdd60621b6044820152606490fd5b5034610231576060366003190112610231576001600160401b0360043581811161022d5761204c90369060040161232e565b6024358281116107c55761206490369060040161232e565b916044359081116107c5576120e86120a17f30ae6cc78c27e651745bf2ad08a11de83910ac1e347a52f7ac898c0fbef94dae92369060040161232e565b926120ba604051602081845161066c81838589016124b2565b6120c68551151561260c565b6121056120f685516020870120966040519485946060865260608601906124d5565b9084820360208601526124d5565b828103604084015233956124d5565b0390a380f35b50346102315760c0366003190112610231576001600160401b0360243581811161022d5761213d9036906004016123a6565b505060443581811161022d576121579036906004016123a6565b5050608435908111610229576119719036906004016123a6565b50346102315760a036600319011261023157806001600160401b03602435818111611afd576121a490369060040161232e565b90604435818111611af8576121bd90369060040161232e565b916121c661237a565b916084359081116107c15784936122576121e58693369060040161232e565b6121f0303314612511565b61224960405193849261223a6122276020860199630922c0cb60e31b8b5260043560248801526080604488015260a48701906124d5565b60231993848783030160648801526124d5565b918483030160848501526124d5565b03601f1981018352826122f2565b51925af1612263612549565b501561226c5780f35b60405162461bcd60e51b815260206004820152601460248201527310dbdb9d1c9858dd0818d85b1b0819985a5b195960621b6044820152606490fd5b5034610231578060031936011261023157602090604051908152f35b90503461022957816003193601126102295780600260209252f35b6001600160401b03811161189557604052565b90601f801991011681019081106001600160401b0382111761189557604052565b6001600160401b03811161189557601f01601f191660200190565b81601f820112156123755780359061234582612313565b9261235360405194856122f2565b8284526020838301011161237557816000926020809301838601378301015290565b600080fd5b606435906001600160a01b038216820361237557565b600435906001600160a01b038216820361237557565b9181601f84011215612375578235916001600160401b038311612375576020838186019501011161237557565b90600182811c92168015612403575b60208310146123ed57565b634e487b7160e01b600052602260045260246000fd5b91607f16916123e2565b90604051918260008254612420816123d3565b908184526020946001916001811690816000146124905750600114612451575b50505061244f925003836122f2565b565b600090815285812095935091905b81831061247857505061244f9350820101388080612440565b8554888401850152948501948794509183019161245f565b9250505061244f94925060ff191682840152151560051b820101388080612440565b60005b8381106124c55750506000910152565b81810151838201526020016124b5565b906020916124ee815180928185528580860191016124b2565b601f01601f1916010190565b6001600160401b0381116118955760051b60200190565b1561251857565b60405162461bcd60e51b815260206004820152600960248201526827b7363c9039b2b63360b91b6044820152606490fd5b3d15612574573d9061255a82612313565b9161256860405193846122f2565b82523d6000602084013e565b606090565b600052600560205260ff60406000205416156125ba5760086020526125a1604060002061240d565b80519081156125b257602001201490565b505050600090565b50600090565b156125c757565b60405162461bcd60e51b815260206004820152601d60248201527f556e737570706f727465642064657374696e6174696f6e20636861696e0000006044820152606490fd5b1561261357565b60405162461bcd60e51b815260206004820152601b60248201527f496e76616c69642064657374696e6174696f6e206164647265737300000000006044820152606490fd5b818110612663575050565b60008155600101612658565b612687906020604051928284809451938492016124b2565b810103902090565b1561269657565b606460405162461bcd60e51b815260206004820152602060248201527f416d6f756e74206d7573742062652067726561746572207468616e207a65726f6044820152fd5b60405190604082018281106001600160401b038211176118955760405260048252634955325560e01b6020830152565b1561271157565b60405162461bcd60e51b81526020600482015260116024820152702ab739bab83837b93a32b2103a37b5b2b760791b6044820152606490fd5b9493926127766060936127686127849460808a5260808a01906124d5565b9088820360208a01526124d5565b9086820360408801526124d5565b930152565b805182101561279d5760209160051b010190565b634e487b7160e01b600052603260045260246000fd5b9190601f81116127c257505050565b61244f926000526020600020906020601f840160051c830193106127ee575b601f0160051c0190612658565b90915081906127e1565b6000546001600160a01b0316330361280c57565b606460405162461bcd60e51b815260206004820152602060248201527f4f776e61626c653a2063616c6c6572206973206e6f7420746865206f776e65726044820152fd5b60025481101561279d5760026000527f405787fa12a823e0f2b7631cc41b3ba8828b3321ca811111fa75cd3aa3bb5ace0190600090565b60008181526003602052604081205461290457600254680100000000000000008110156128f05790826128dc6128c584600160409601600255612850565b819391549060031b91821b91600019901b19161790565b905560025492815260036020522055600190565b634e487b7160e01b82526041600452602482fd5b905090565b51906001600160a01b038216820361237557565b81601f8201121561237557805161293381612313565b9261294160405194856122f2565b818452602082840101116123755761295f91602080850191016124b2565b90565b916060838303126123755761297683612909565b9260208101519260408201516001600160401b0381116123755761295f920161291d565b156129a157565b60405162461bcd60e51b8152602060048201526014602482015273092dcecc2d8d2c840e0c2f2d8dec2c840d0c2e6d60631b6044820152606490fd5b906041815114600014612a0b57612a07916020820151906060604084015193015160001a90612c19565b9091565b5050600090600290565b6005811015612b195780612a265750565b60018103612a735760405162461bcd60e51b815260206004820152601860248201527f45434453413a20696e76616c6964207369676e617475726500000000000000006044820152606490fd5b60028103612ac05760405162461bcd60e51b815260206004820152601f60248201527f45434453413a20696e76616c6964207369676e6174757265206c656e677468006044820152606490fd5b600314612ac957565b60405162461bcd60e51b815260206004820152602260248201527f45434453413a20696e76616c6964207369676e6174757265202773272076616c604482015261756560f01b6064820152608490fd5b634e487b7160e01b600052602160045260246000fd5b6000818152600360205260408120549091908015612c145760001990808201818111612c005760025490838201918211612bec57808203612bb8575b5050506002548015612ba457810190612b8382612850565b909182549160031b1b19169055600255815260036020526040812055600190565b634e487b7160e01b84526031600452602484fd5b612bd6612bc76128c593612850565b90549060031b1c928392612850565b9055845260036020526040842055388080612b6b565b634e487b7160e01b86526011600452602486fd5b634e487b7160e01b85526011600452602485fd5b505090565b9291907f7fffffffffffffffffffffffffffffff5d576e7357a4501ddfe92f46681b20a08311612c9c5791608094939160ff602094604051948552168484015260408301526060820152600093849182805260015afa15612c8f5781516001600160a01b03811615612c89579190565b50600190565b50604051903d90823e3d90fd5b5050505060009060039056fea26469706673582212200bb804fe0ad3902ba81ea3ae114367ef9ea0dca10bdfcb38a3831e4bdd0f912164736f6c63430008180033",
  "linkReferences": {},
  "deployedLinkReferences": {}
}